{
  "_format": "hh-sol-artifact-1",
  "contractName": "AdvancedMarketplace",
  "sourceName": "contracts/AdvancedMarketplace.sol",
  "abi": [
    {
      "inputs": [
        {
          "internalType": "uint256",
          "name": "_itemId",
          "type": "uint256"
        }
      ],
      "name": "buyItem",
      "outputs": [],
      "stateMutability": "payable",
      "type": "function"
    },
    {
      "inputs": [
        {
          "internalType": "uint256",
          "name": "_itemId",
          "type": "uint256"
        },
        {
          "internalType": "string",
          "name": "_itemName",
          "type": "string"
        }
      ],
      "name": "createItem",
      "outputs": [],
      "stateMutability": "nonpayable",
      "type": "function"
    },
    {
      "inputs": [],
      "name": "itemCounter",
      "outputs": [
        {
          "internalType": "uint256",
          "name": "",
          "type": "uint256"
        }
      ],
      "stateMutability": "view",
      "type": "function"
    },
    {
      "inputs": [
        {
          "internalType": "uint256",
          "name": "",
          "type": "uint256"
        }
      ],
      "name": "itemStorage",
      "outputs": [
        {
          "internalType": "uint256",
          "name": "itemId",
          "type": "uint256"
        },
        {
          "internalType": "string",
          "name": "itemName",
          "type": "string"
        },
        {
          "internalType": "bool",
          "name": "saleId",
          "type": "bool"
        },
        {
          "internalType": "address",
          "name": "seller",
          "type": "address"
        },
        {
          "internalType": "uint256",
          "name": "price",
          "type": "uint256"
        }
      ],
      "stateMutability": "view",
      "type": "function"
    },
    {
      "inputs": [
        {
          "internalType": "uint256",
          "name": "_itemId",
          "type": "uint256"
        },
        {
          "internalType": "uint256",
          "name": "_price",
          "type": "uint256"
        }
      ],
      "name": "sellItem",
      "outputs": [],
      "stateMutability": "nonpayable",
      "type": "function"
    }
  ],
  "bytecode": "0x6080604052348015600f57600080fd5b506110668061001f6000396000f3fe60806040526004361061004a5760003560e01c80632d9235611461004f5780636d6d00ed14610078578063a6436d78146100a3578063ba5a9414146100e4578063e7fb74c71461010d575b600080fd5b34801561005b57600080fd5b5061007660048036038101906100719190610751565b610129565b005b34801561008457600080fd5b5061008d610273565b60405161009a91906107a0565b60405180910390f35b3480156100af57600080fd5b506100ca60048036038101906100c591906107bb565b610279565b6040516100db9594939291906108d4565b60405180910390f35b3480156100f057600080fd5b5061010b60048036038101906101069190610a63565b610364565b005b610127600480360381019061012291906107bb565b6104c6565b005b6000600160008481526020019081526020016000206000015403610182576040517f08c379a000000000000000000000000000000000000000000000000000000000815260040161017990610b0b565b60405180910390fd5b3373ffffffffffffffffffffffffffffffffffffffff166001600084815260200190815260200160002060020160019054906101000a900473ffffffffffffffffffffffffffffffffffffffff1673ffffffffffffffffffffffffffffffffffffffff1614610226576040517f08c379a000000000000000000000000000000000000000000000000000000000815260040161021d90610b77565b60405180910390fd5b600180600084815260200190815260200160002060020160006101000a81548160ff0219169083151502179055508060016000848152602001908152602001600020600301819055505050565b60005481565b60016020528060005260406000206000915090508060000154908060010180546102a290610bc6565b80601f01602080910402602001604051908101604052809291908181526020018280546102ce90610bc6565b801561031b5780601f106102f05761010080835404028352916020019161031b565b820191906000526020600020905b8154815290600101906020018083116102fe57829003601f168201915b5050505050908060020160009054906101000a900460ff16908060020160019054906101000a900473ffffffffffffffffffffffffffffffffffffffff16908060030154905085565b60006001600084815260200190815260200160002060000154146103bd576040517f08c379a00000000000000000000000000000000000000000000000000000000081526004016103b490610c43565b60405180910390fd5b60006040518060a001604052808481526020018381526020016000151581526020013373ffffffffffffffffffffffffffffffffffffffff1681526020016000815250905080600160008581526020019081526020016000206000820151816000015560208201518160010190816104359190610e0f565b5060408201518160020160006101000a81548160ff02191690831515021790555060608201518160020160016101000a81548173ffffffffffffffffffffffffffffffffffffffff021916908373ffffffffffffffffffffffffffffffffffffffff160217905550608082015181600301559050506000808154809291906104bc90610f10565b9190505550505050565b600060016000838152602001908152602001600020600001540361051f576040517f08c379a000000000000000000000000000000000000000000000000000000000815260040161051690610b0b565b60405180910390fd5b600115156001600083815260200190815260200160002060020160009054906101000a900460ff16151514610589576040517f08c379a000000000000000000000000000000000000000000000000000000000815260040161058090610fa4565b60405180910390fd5b600160008281526020019081526020016000206003015434146105e1576040517f08c379a00000000000000000000000000000000000000000000000000000000081526004016105d890611010565b60405180910390fd5b60006001600083815260200190815260200160002060020160019054906101000a900473ffffffffffffffffffffffffffffffffffffffff169050336001600084815260200190815260200160002060020160016101000a81548173ffffffffffffffffffffffffffffffffffffffff021916908373ffffffffffffffffffffffffffffffffffffffff16021790555060006001600084815260200190815260200160002060020160006101000a81548160ff021916908315150217905550600060016000848152602001908152602001600020600301819055508073ffffffffffffffffffffffffffffffffffffffff166108fc349081150290604051600060405180830381858888f19350505050158015610702573d6000803e3d6000fd5b505050565b6000604051905090565b600080fd5b600080fd5b6000819050919050565b61072e8161071b565b811461073957600080fd5b50565b60008135905061074b81610725565b92915050565b6000806040838503121561076857610767610711565b5b60006107768582860161073c565b92505060206107878582860161073c565b9150509250929050565b61079a8161071b565b82525050565b60006020820190506107b56000830184610791565b92915050565b6000602082840312156107d1576107d0610711565b5b60006107df8482850161073c565b91505092915050565b600081519050919050565b600082825260208201905092915050565b60005b83811015610822578082015181840152602081019050610807565b60008484015250505050565b6000601f19601f8301169050919050565b600061084a826107e8565b61085481856107f3565b9350610864818560208601610804565b61086d8161082e565b840191505092915050565b60008115159050919050565b61088d81610878565b82525050565b600073ffffffffffffffffffffffffffffffffffffffff82169050919050565b60006108be82610893565b9050919050565b6108ce816108b3565b82525050565b600060a0820190506108e96000830188610791565b81810360208301526108fb818761083f565b905061090a6040830186610884565b61091760608301856108c5565b6109246080830184610791565b9695505050505050565b600080fd5b600080fd5b7f4e487b7100000000000000000000000000000000000000000000000000000000600052604160045260246000fd5b6109708261082e565b810181811067ffffffffffffffff8211171561098f5761098e610938565b5b80604052505050565b60006109a2610707565b90506109ae8282610967565b919050565b600067ffffffffffffffff8211156109ce576109cd610938565b5b6109d78261082e565b9050602081019050919050565b82818337600083830152505050565b6000610a06610a01846109b3565b610998565b905082815260208101848484011115610a2257610a21610933565b5b610a2d8482856109e4565b509392505050565b600082601f830112610a4a57610a4961092e565b5b8135610a5a8482602086016109f3565b91505092915050565b60008060408385031215610a7a57610a79610711565b5b6000610a888582860161073c565b925050602083013567ffffffffffffffff811115610aa957610aa8610716565b5b610ab585828601610a35565b9150509250929050565b7f4974656d20646f6573206e6f7420657869737400000000000000000000000000600082015250565b6000610af56013836107f3565b9150610b0082610abf565b602082019050919050565b60006020820190508181036000830152610b2481610ae8565b9050919050565b7f596f7520617265206e6f7420746865206f776e65720000000000000000000000600082015250565b6000610b616015836107f3565b9150610b6c82610b2b565b602082019050919050565b60006020820190508181036000830152610b9081610b54565b9050919050565b7f4e487b7100000000000000000000000000000000000000000000000000000000600052602260045260246000fd5b60006002820490506001821680610bde57607f821691505b602082108103610bf157610bf0610b97565b5b50919050565b7f4974656d20494420616c72656164792065786973747300000000000000000000600082015250565b6000610c2d6016836107f3565b9150610c3882610bf7565b602082019050919050565b60006020820190508181036000830152610c5c81610c20565b9050919050565b60008190508160005260206000209050919050565b60006020601f8301049050919050565b600082821b905092915050565b600060088302610cc57fffffffffffffffffffffffffffffffffffffffffffffffffffffffffffffffff82610c88565b610ccf8683610c88565b95508019841693508086168417925050509392505050565b6000819050919050565b6000610d0c610d07610d028461071b565b610ce7565b61071b565b9050919050565b6000819050919050565b610d2683610cf1565b610d3a610d3282610d13565b848454610c95565b825550505050565b600090565b610d4f610d42565b610d5a818484610d1d565b505050565b5b81811015610d7e57610d73600082610d47565b600181019050610d60565b5050565b601f821115610dc357610d9481610c63565b610d9d84610c78565b81016020851015610dac578190505b610dc0610db885610c78565b830182610d5f565b50505b505050565b600082821c905092915050565b6000610de660001984600802610dc8565b1980831691505092915050565b6000610dff8383610dd5565b9150826002028217905092915050565b610e18826107e8565b67ffffffffffffffff811115610e3157610e30610938565b5b610e3b8254610bc6565b610e46828285610d82565b600060209050601f831160018114610e795760008415610e67578287015190505b610e718582610df3565b865550610ed9565b601f198416610e8786610c63565b60005b82811015610eaf57848901518255600182019150602085019450602081019050610e8a565b86831015610ecc5784890151610ec8601f891682610dd5565b8355505b6001600288020188555050505b505050505050565b7f4e487b7100000000000000000000000000000000000000000000000000000000600052601160045260246000fd5b6000610f1b8261071b565b91507fffffffffffffffffffffffffffffffffffffffffffffffffffffffffffffffff8203610f4d57610f4c610ee1565b5b600182019050919050565b7f4974656d206973206e6f7420666f722073616c65000000000000000000000000600082015250565b6000610f8e6014836107f3565b9150610f9982610f58565b602082019050919050565b60006020820190508181036000830152610fbd81610f81565b9050919050565b7f496e636f72726563742045544820616d6f756e742073656e7400000000000000600082015250565b6000610ffa6019836107f3565b915061100582610fc4565b602082019050919050565b6000602082019050818103600083015261102981610fed565b905091905056fea2646970667358221220b0f52f7167f9075c651a0a7a9e54adc61d7618976808ffb51e6d51957521624c64736f6c634300081a0033",
  "linkReferences": {},
  "deployedLinkReferences": {}
}